{
  "contractName": "Matchgame",
  "abi": [
    {
      "constant": false,
      "inputs": [],
      "name": "unpause",
      "outputs": [],
      "payable": false,
      "stateMutability": "nonpayable",
      "type": "function"
    },
    {
      "constant": true,
      "inputs": [],
      "name": "paused",
      "outputs": [
        {
          "name": "",
          "type": "bool"
        }
      ],
      "payable": false,
      "stateMutability": "view",
      "type": "function"
    },
    {
      "constant": false,
      "inputs": [],
      "name": "destroy",
      "outputs": [],
      "payable": false,
      "stateMutability": "nonpayable",
      "type": "function"
    },
    {
      "constant": false,
      "inputs": [],
      "name": "pause",
      "outputs": [],
      "payable": false,
      "stateMutability": "nonpayable",
      "type": "function"
    },
    {
      "constant": true,
      "inputs": [],
      "name": "owner",
      "outputs": [
        {
          "name": "",
          "type": "address"
        }
      ],
      "payable": false,
      "stateMutability": "view",
      "type": "function"
    },
    {
      "constant": false,
      "inputs": [
        {
          "name": "newOwner",
          "type": "address"
        }
      ],
      "name": "transferOwnership",
      "outputs": [],
      "payable": false,
      "stateMutability": "nonpayable",
      "type": "function"
    },
    {
      "constant": false,
      "inputs": [
        {
          "name": "_recipient",
          "type": "address"
        }
      ],
      "name": "destroyAndSend",
      "outputs": [],
      "payable": false,
      "stateMutability": "nonpayable",
      "type": "function"
    },
    {
      "anonymous": false,
      "inputs": [
        {
          "indexed": false,
          "name": "field",
          "type": "uint8[4]"
        },
        {
          "indexed": false,
          "name": "isItYourTurn",
          "type": "bool"
        },
        {
          "indexed": false,
          "name": "playerWon",
          "type": "uint8"
        },
        {
          "indexed": false,
          "name": "otherPlayer",
          "type": "address"
        }
      ],
      "name": "GameState",
      "type": "event"
    },
    {
      "anonymous": false,
      "inputs": [],
      "name": "Pause",
      "type": "event"
    },
    {
      "anonymous": false,
      "inputs": [],
      "name": "Unpause",
      "type": "event"
    },
    {
      "anonymous": false,
      "inputs": [
        {
          "indexed": true,
          "name": "previousOwner",
          "type": "address"
        },
        {
          "indexed": true,
          "name": "newOwner",
          "type": "address"
        }
      ],
      "name": "OwnershipTransferred",
      "type": "event"
    },
    {
      "constant": false,
      "inputs": [
        {
          "name": "otherPlayer",
          "type": "address"
        }
      ],
      "name": "startNewGame",
      "outputs": [],
      "payable": false,
      "stateMutability": "nonpayable",
      "type": "function"
    },
    {
      "constant": true,
      "inputs": [],
      "name": "getGame",
      "outputs": [
        {
          "name": "field",
          "type": "uint8[4]"
        },
        {
          "name": "isItYourTurn",
          "type": "bool"
        },
        {
          "name": "playerWon",
          "type": "uint8"
        },
        {
          "name": "otherPlayer",
          "type": "address"
        }
      ],
      "payable": false,
      "stateMutability": "view",
      "type": "function"
    },
    {
      "constant": false,
      "inputs": [
        {
          "name": "row",
          "type": "uint8"
        },
        {
          "name": "amountToRemove",
          "type": "uint8"
        }
      ],
      "name": "makeMove",
      "outputs": [],
      "payable": false,
      "stateMutability": "nonpayable",
      "type": "function"
    }
  ],
  "bytecode": "0x608060405260008060146101000a81548160ff021916908315150217905550608060405190810160405280600160ff168152602001600360ff168152602001600560ff168152602001600760ff16815250600190600462000062929190620000a9565b50336000806101000a81548173ffffffffffffffffffffffffffffffffffffffff021916908373ffffffffffffffffffffffffffffffffffffffff1602179055506200017d565b826004601f01602090048101928215620001375791602002820160005b838211156200010657835183826101000a81548160ff021916908360ff1602179055509260200192600101602081600001049283019260010302620000c6565b8015620001355782816101000a81549060ff021916905560010160208160000104928301926001030262000106565b505b5090506200014691906200014a565b5090565b6200017a91905b808211156200017657600081816101000a81549060ff02191690555060010162000151565b5090565b90565b6114c9806200018d6000396000f3006080604052600436106100a4576000357c0100000000000000000000000000000000000000000000000000000000900463ffffffff1680633f4ba83a146100a95780634494fd9f146100c05780635c975abb1461015e5780635e24b0f11461018d5780636d8899c5146101ca57806383197ef01461020d5780638456cb59146102245780638da5cb5b1461023b578063f2fde38b14610292578063f5074f41146102d5575b600080fd5b3480156100b557600080fd5b506100be610318565b005b3480156100cc57600080fd5b506100d56103d6565b6040518085600460200280838360005b838110156101005780820151818401526020810190506100e5565b50505050905001841515151581526020018360ff1660ff1681526020018273ffffffffffffffffffffffffffffffffffffffff1673ffffffffffffffffffffffffffffffffffffffff16815260200194505050505060405180910390f35b34801561016a57600080fd5b5061017361076e565b604051808215151515815260200191505060405180910390f35b34801561019957600080fd5b506101c8600480360381019080803560ff169060200190929190803560ff169060200190929190505050610781565b005b3480156101d657600080fd5b5061020b600480360381019080803573ffffffffffffffffffffffffffffffffffffffff169060200190929190505050610af5565b005b34801561021957600080fd5b50610222610ea3565b005b34801561023057600080fd5b50610239610f38565b005b34801561024757600080fd5b50610250610ff8565b604051808273ffffffffffffffffffffffffffffffffffffffff1673ffffffffffffffffffffffffffffffffffffffff16815260200191505060405180910390f35b34801561029e57600080fd5b506102d3600480360381019080803573ffffffffffffffffffffffffffffffffffffffff16906020019092919050505061101d565b005b3480156102e157600080fd5b50610316600480360381019080803573ffffffffffffffffffffffffffffffffffffffff169060200190929190505050611172565b005b6000809054906101000a900473ffffffffffffffffffffffffffffffffffffffff1673ffffffffffffffffffffffffffffffffffffffff163373ffffffffffffffffffffffffffffffffffffffff1614151561037357600080fd5b600060149054906101000a900460ff16151561038e57600080fd5b60008060146101000a81548160ff0219169083151502179055507f7805862f689e2f13df9f062ff482ad3ad112aca9e0847911ed832e158c525b3360405160405180910390a1565b6103de611314565b60008060006103eb611337565b60046000600360003373ffffffffffffffffffffffffffffffffffffffff1673ffffffffffffffffffffffffffffffffffffffff16815260200190815260200160002054815260200190815260200160002060e060405190810160405290816000820160009054906101000a900460ff161515151581526020016000820160019054906101000a900473ffffffffffffffffffffffffffffffffffffffff1673ffffffffffffffffffffffffffffffffffffffff1673ffffffffffffffffffffffffffffffffffffffff1681526020016001820160009054906101000a900473ffffffffffffffffffffffffffffffffffffffff1673ffffffffffffffffffffffffffffffffffffffff1673ffffffffffffffffffffffffffffffffffffffff1681526020016001820160149054906101000a900460ff161515151581526020016001820160159054906101000a900460ff161515151581526020016001820160169054906101000a900460ff16151515158152602001600282016004806020026040519081016040528092919082600480156105c3576020028201916000905b82829054906101000a900460ff1660ff168152602001906001019060208260000104928301926001038202915080841161058c5790505b50505050508152505090508060c00151945080608001511561067f578060a00151801561061f57503373ffffffffffffffffffffffffffffffffffffffff16816020015173ffffffffffffffffffffffffffffffffffffffff16145b8061066757508060a0015115801561066657503373ffffffffffffffffffffffffffffffffffffffff16816040015173ffffffffffffffffffffffffffffffffffffffff16145b5b15610675576002925061067a565b600192505b61071b565b806060015180156106bf57503373ffffffffffffffffffffffffffffffffffffffff16816020015173ffffffffffffffffffffffffffffffffffffffff16145b806107075750806060015115801561070657503373ffffffffffffffffffffffffffffffffffffffff16816040015173ffffffffffffffffffffffffffffffffffffffff16145b5b15610715576001935061071a565b600093505b5b3373ffffffffffffffffffffffffffffffffffffffff16816020015173ffffffffffffffffffffffffffffffffffffffff16141561075f5780604001519150610767565b806020015191505b5090919293565b600060149054906101000a900460ff1681565b600061078b611314565b600080600086600060046000600360003373ffffffffffffffffffffffffffffffffffffffff1673ffffffffffffffffffffffffffffffffffffffff16815260200190815260200160002054815260200190815260200160002090508060010160159054906101000a900460ff1615151561080557600080fd5b8060010160149054906101000a900460ff161561087f573373ffffffffffffffffffffffffffffffffffffffff168160000160019054906101000a900473ffffffffffffffffffffffffffffffffffffffff1673ffffffffffffffffffffffffffffffffffffffff1614151561087a57600080fd5b6108de565b3373ffffffffffffffffffffffffffffffffffffffff168160010160009054906101000a900473ffffffffffffffffffffffffffffffffffffffff1673ffffffffffffffffffffffffffffffffffffffff161415156108dd57600080fd5b5b60008260ff16101580156108f6575060038260ff1611155b151561090157600080fd5b600060149054906101000a900460ff1615151561091d57600080fd5b60046000600360003373ffffffffffffffffffffffffffffffffffffffff1673ffffffffffffffffffffffffffffffffffffffff16815260200190815260200160002054815260200190815260200160002096506109aa876002018a60ff1660048110151561098857fe5b602091828204019190069054906101000a900460ff1660ff168960ff166111e6565b876002018a60ff166004811015156109be57fe5b602091828204019190066101000a81548160ff021916908360ff1602179055506109e66111ff565b8660010160159054906101000a900460ff161515610a2d578660010160149054906101000a900460ff16158760010160146101000a81548160ff0219169083151502179055505b610a356103d6565b95509550955095507f801deb0be89c5aa47928ffd89db686bc6039805876e4d88c35f76ad319d830f7868686866040518085600460200280838360005b83811015610a8d578082015181840152602081019050610a72565b50505050905001841515151581526020018360ff1660ff1681526020018273ffffffffffffffffffffffffffffffffffffffff1673ffffffffffffffffffffffffffffffffffffffff16815260200194505050505060405180910390a1505050505050505050565b610afd611337565b610b05611314565b60008060008060149054906101000a900460ff16151515610b2557600080fd5b6001600480602002604051908101604052809291908260048015610b84576020028201916000905b82829054906101000a900460ff1660ff1681526020019060010190602082600001049283019260010382029150808411610b4d5790505b50505050508560c0018190525033856020019073ffffffffffffffffffffffffffffffffffffffff16908173ffffffffffffffffffffffffffffffffffffffff168152505085856040019073ffffffffffffffffffffffffffffffffffffffff16908173ffffffffffffffffffffffffffffffffffffffff16815250506002600081548092919060010191905055508460046000600254815260200190815260200160002060008201518160000160006101000a81548160ff02191690831515021790555060208201518160000160016101000a81548173ffffffffffffffffffffffffffffffffffffffff021916908373ffffffffffffffffffffffffffffffffffffffff16021790555060408201518160010160006101000a81548173ffffffffffffffffffffffffffffffffffffffff021916908373ffffffffffffffffffffffffffffffffffffffff16021790555060608201518160010160146101000a81548160ff02191690831515021790555060808201518160010160156101000a81548160ff02191690831515021790555060a08201518160010160166101000a81548160ff02191690831515021790555060c082015181600201906004610d4e9291906113b0565b50905050600254600360003373ffffffffffffffffffffffffffffffffffffffff1673ffffffffffffffffffffffffffffffffffffffff16815260200190815260200160002081905550600254600360008873ffffffffffffffffffffffffffffffffffffffff1673ffffffffffffffffffffffffffffffffffffffff16815260200190815260200160002081905550610de66103d6565b93509350935093507f801deb0be89c5aa47928ffd89db686bc6039805876e4d88c35f76ad319d830f7848484846040518085600460200280838360005b83811015610e3e578082015181840152602081019050610e23565b50505050905001841515151581526020018360ff1660ff1681526020018273ffffffffffffffffffffffffffffffffffffffff1673ffffffffffffffffffffffffffffffffffffffff16815260200194505050505060405180910390a1505050505050565b6000809054906101000a900473ffffffffffffffffffffffffffffffffffffffff1673ffffffffffffffffffffffffffffffffffffffff163373ffffffffffffffffffffffffffffffffffffffff16141515610efe57600080fd5b6000809054906101000a900473ffffffffffffffffffffffffffffffffffffffff1673ffffffffffffffffffffffffffffffffffffffff16ff5b6000809054906101000a900473ffffffffffffffffffffffffffffffffffffffff1673ffffffffffffffffffffffffffffffffffffffff163373ffffffffffffffffffffffffffffffffffffffff16141515610f9357600080fd5b600060149054906101000a900460ff16151515610faf57600080fd5b6001600060146101000a81548160ff0219169083151502179055507f6985a02210a168e66602d3235cb6db0e70f92b3ba4d376a33c0f3d9434bff62560405160405180910390a1565b6000809054906101000a900473ffffffffffffffffffffffffffffffffffffffff1681565b6000809054906101000a900473ffffffffffffffffffffffffffffffffffffffff1673ffffffffffffffffffffffffffffffffffffffff163373ffffffffffffffffffffffffffffffffffffffff1614151561107857600080fd5b600073ffffffffffffffffffffffffffffffffffffffff168173ffffffffffffffffffffffffffffffffffffffff16141515156110b457600080fd5b8073ffffffffffffffffffffffffffffffffffffffff166000809054906101000a900473ffffffffffffffffffffffffffffffffffffffff1673ffffffffffffffffffffffffffffffffffffffff167f8be0079c531659141344cd1fd0a4f28419497f9722a3daafe3b4186f6b6457e060405160405180910390a3806000806101000a81548173ffffffffffffffffffffffffffffffffffffffff021916908373ffffffffffffffffffffffffffffffffffffffff16021790555050565b6000809054906101000a900473ffffffffffffffffffffffffffffffffffffffff1673ffffffffffffffffffffffffffffffffffffffff163373ffffffffffffffffffffffffffffffffffffffff161415156111cd57600080fd5b8073ffffffffffffffffffffffffffffffffffffffff16ff5b60008282111515156111f457fe5b818303905092915050565b600080600060046000600360003373ffffffffffffffffffffffffffffffffffffffff1673ffffffffffffffffffffffffffffffffffffffff168152602001908152602001600020548152602001908152602001600020925060019150600090505b60048160ff1610156112b5576000836002018260ff1660048110151561128357fe5b602091828204019190069054906101000a900460ff1660ff161415156112a857600091505b8080600101915050611261565b811561130f5760018360010160156101000a81548160ff0219169083151502179055508260010160149054906101000a900460ff16151561130e5760018360010160166101000a81548160ff0219169083151502179055505b5b505050565b608060405190810160405280600490602082028038833980820191505090505090565b61014060405190810160405280600015158152602001600073ffffffffffffffffffffffffffffffffffffffff168152602001600073ffffffffffffffffffffffffffffffffffffffff1681526020016000151581526020016000151581526020016000151581526020016113aa61144a565b81525090565b826004601f016020900481019282156114395791602002820160005b8382111561140a57835183826101000a81548160ff021916908360ff16021790555092602001926001016020816000010492830192600103026113cc565b80156114375782816101000a81549060ff021916905560010160208160000104928301926001030261140a565b505b509050611446919061146d565b5090565b608060405190810160405280600490602082028038833980820191505090505090565b61149a91905b8082111561149657600081816101000a81549060ff021916905550600101611473565b5090565b905600a165627a7a723058205721693e6105022dabcd26b2e90204d2bfd7260cbcca0ea3b98b14561daab7520029",
  "source": "pragma solidity ^0.4.24;\n\nimport \"../installed_contracts/zeppelin/contracts/math/SafeMath.sol\";\nimport \"../installed_contracts/zeppelin/contracts/lifecycle/Pausable.sol\";\nimport \"../installed_contracts/zeppelin/contracts/lifecycle/Destructible.sol\";\n\ncontract Matchgame is Pausable, Destructible {\n\n    uint8[4] initialGameState = [1,3,5,7];\n    uint numberOfGames;\n    mapping(address => uint) playersToGameID;\n    mapping(uint => Game) gameIdToGame;\n\n    event GameState(uint8[4] field, bool isItYourTurn, uint8 playerWon, address otherPlayer);\n\n    struct Game {\n        bool voted;\n        address player1;\n        address player2;\n        //bool player1AgreedToStart;\n        //bool player2AgreedToStart;\n        bool player1turn;\n        bool gameFinished;\n        bool player1Won;\n        uint8[4] field;\n    }\n\n    modifier isValidMove(uint8 row) {\n        Game storage game = gameIdToGame[playersToGameID[msg.sender]];\n        // game should not be finished yes\n        require (!game.gameFinished);\n        // it must be the players turn\n        if (game.player1turn) {\n            require(game.player1 == msg.sender);\n        } else {\n            require(game.player2 == msg.sender);\n        }\n        // the row must be in the right range\n        require(row >= 0 && row <= 3);\n        _;\n    }\n    \n    /**\n     * This starts a new game. For the caller and for the other player that is\n     * given as a parameter the games are overwritten!\n     * The game is set to its initial position.\n     * \n     * @param otherPlayer The address of the second player. (Can be the same as first player for testing)\n     */\n    function startNewGame(address otherPlayer) whenNotPaused public {\n        Game memory game;\n        game.field = initialGameState;\n        game.player1 = msg.sender;\n        game.player2 = otherPlayer;\n        numberOfGames++;\n        gameIdToGame[numberOfGames] = game;\n        playersToGameID[msg.sender] = numberOfGames;\n        playersToGameID[otherPlayer] = numberOfGames;\n        (uint8[4] memory field, bool yourTurn, uint8 playerWon, address other) = getGame();\n        emit GameState(field, yourTurn, playerWon, other);\n    }\n\n    /**\n    * Get the game state with information for the caller.\n    * \n    * @return field The game field with the state the game is currently in.\n    * @return isItYourTurn Boolean, true if it is the callers turn.\n    * @return playerWon uint8, 0 noone won, 1 if caller lost, 2 if caller won.\n     */\n    function getGame() view public returns(uint8[4] memory field, bool isItYourTurn, uint8 playerWon, address otherPlayer) {\n        Game memory game = gameIdToGame[playersToGameID[msg.sender]];\n        field = game.field;\n        if (game.gameFinished) {\n            if ((game.player1Won && game.player1 == msg.sender) ||\n                (!game.player1Won && game.player2 == msg.sender)) {\n                    playerWon = 2;\n                }\n                else {\n                    playerWon = 1;\n                }\n        }\n        else {\n            if ((game.player1turn && game.player1 == msg.sender) ||\n            (!game.player1turn && game.player2 == msg.sender) ) {\n                isItYourTurn = true;\n            } else {\n                isItYourTurn = false;\n            }\n        }\n        if (game.player1 == msg.sender) {\n            otherPlayer = game.player2;\n        } else {\n            otherPlayer = game.player1;\n        }\n    }\n    \n    /**\n     * Make a game move with this function, removing between 1 and all matches of one row.\n     * The method validates if it is a valid move and calculates the won or lost state\n     * in case the game is finisched\n     * \n     * @param row The row from which to remove matches.\n     * @param amountToRemove The amount of matches to remove.\n     */\n    function makeMove(uint8 row, uint8 amountToRemove) isValidMove(row) whenNotPaused public {\n        Game storage game = gameIdToGame[playersToGameID[msg.sender]];\n\n        game.field[row] = uint8(SafeMath.sub(game.field[row], amountToRemove));\n        \n        determineGameFinished();\n\n        if (!game.gameFinished) {\n            game.player1turn = !game.player1turn;\n        }\n\n        (uint8[4] memory field, bool yourTurn, uint8 playerWon, address otherPlayer) = getGame();\n        emit GameState(field, yourTurn, playerWon, otherPlayer);\n    }\n\n\n    /**\n     * Helper function to determine if the game is finished. If so it also sets the winner and loser.\n     */\n    function determineGameFinished() private {\n        Game storage game = gameIdToGame[playersToGameID[msg.sender]];\n        // check if this was the last removed item or if there is only one left\n        bool gameLost = true;\n        for(uint8 i = 0; i<4; i++) {\n            if (game.field[i] != 0) {\n                gameLost = false;\n            }\n        }\n        if (gameLost) {\n            game.gameFinished = true;\n            if (!game.player1turn) { //player 2s turn\n                game.player1Won = true;  //other case (player 2 won) is gameFinished=true and player1Won=false\n            }\n        }        \n    }\n}",
  "sourcePath": "/mnt/d/Projects/ConsenSys Academy/TestProjects/eth-matchgame/contracts/Matchgame.sol",
  "compiler": {
    "name": "solc",
    "version": "0.4.24+commit.e67f0147.Emscripten.clang"
  },
  "schemaVersion": "2.0.1",
  "updatedAt": "2018-08-25T15:13:51.082Z"
}